:100000000C9434000C9451000C9451000C94510049
:100010000C9451000C9451000C9451000C9451001C
:100020000C9451000C9451000C9451000C9451000C
:100030000C9451000C9451000C9451000C945100FC
:100040000C9451000C9451000C9451000C945100EC
:100050000C9451000C9451000C9451000C945100DC
:100060000C9451000C94510011241FBECFEFD8E026
:10007000DEBFCDBF12E0A0E0B1E0EAE7F6E102C0EA
:1000800005900D92AC3AB107D9F727E0ACEAB2E09F
:1000900001C01D92A939B207E1F70E9408050C942E
:1000A0003B0B0C9400001092C50087E68093C400BF
:1000B0001092C00088E18093C10086E08093C20066
:1000C00008959091C00095FFFCCF8093C6000895DD
:1000D000CF93DF93EC01892B29F4DF91CF91089521
:1000E0000E94610089918111FBCFF7CF8091C00000
:1000F000881F8827881F0895009751F02091C0001D
:1001000027FF06C02091C600FC01208381E00895EE
:1001100080E00895CF92DF92EF92FF92CF93DF932A
:10012000EC019B01A8EEB3E00E94DC079E0150E0C9
:1001300040E0220F331F441F551F0E94BA07C12CF5
:10014000D12C7601439A90E080E065E06A95F1F762
:1001500000000196C817D907C1F74398F0E0E0E026
:1001600065E06A95F1F700003196E817F907C1F7E5
:100170008FEFC81AD80AE80AF80A2C153D054E0573
:100180005F0501F7DF91CF91FF90EF90DF90CF9067
:1001900008953B9A4398089560E570E088EE93E0F7
:1001A0000C948A0068E770E08CEB93E00E948A0070
:1001B0002FEF83EF91E0215080409040E1F700C0A5
:1001C000000068E770E086EF92E00E948A002FEF5F
:1001D00083EF91E0215080409040E1F700C00000A3
:1001E00064EB70E08EE792E00C948A00813069F055
:1001F00030F0823071F0833091F080E0089583B167
:100200008695817091E08927089583B180958170EA
:10021000089589B18095881F8827881F089589B11E
:1002200086FB882780F9EECF84B18C6384B985B1D1
:100230008C6385B984B18C7F84B985B1836085B9BD
:100240008AB18F738AB98BB1806C8BB90895CF93C3
:10025000DF93C0E085B18C6385B9C230A1F1C330B2
:10026000A1F1C13071F12D982AE12A95F1F700C072
:10027000D0E08D2F0E94F600882349F18FEF99EF8F
:10028000E0E081509040E040E1F700C000008D2F99
:100290000E94F6008823D9F08D2F0E94F60081116C
:1002A000FBCF85B18C6385B9F4E0CF9FC0011124E9
:1002B00080509F4F8D0F911DFC018081DF91CF9168
:1002C00008952C98D1CF2B98CFCF2A98CDCFDF5F30
:1002D000D43079F6CF5FC43009F0BCCF85B18C63E0
:1002E00085B980E0EBCFCF93C82F8EE70E94E7045B
:1002F0008C2F88600E94FD04CF910C94F904CF9359
:10030000C82FC62B8C2F0E9473018C2F84600E94F3
:10031000730185E08A95F1F700008C2F0E9473012C
:1003200087EC90E00197F1F700C00000CF910895AD
:10033000CF93C82F60E0807F0E947F0160E08C2F08
:100340008295807FCF910C947F01CF93C82F61E07D
:10035000807F0E947F0161E08C2F8295807FCF910A
:100360000C947F01EF92FF921F93CF93DF9300D005
:1003700000D000D0CDB7DEB7009771F480E32696A9
:100380000FB6F894DEBF0FBECDBFDF91CF911F91A6
:10039000FF90EF900C94A501FE01319610E07F01D3
:1003A0002AE030E01F5FB9010E94A607805D8193BB
:1003B000CB01009711F01630A9F71150F701E10FAA
:1003C000F11D80810E94A5011111F7CF26960FB66D
:1003D000F894DEBF0FBECDBFDF91CF911F91FF908C
:1003E000EF900895CF93DF93EC018991811103C0C1
:1003F000DF91CF9108950E94A501F7CF81E00E947F
:1004000098018FE39FE10197F1F700C00000089584
:100410000E94DE042FEF80E792E021508040904060
:10042000E1F700C0000060E080E30E947F018FE1FF
:100430009EE40197F1F700C0000060E080E30E94B5
:100440007F0187E592E00197F1F700C0000060E0CE
:1004500080E30E947F0160E080E20E947F0188E2E9
:100460000E94980188E00E9498010E94FE0186E0A7
:100470000E9498018CE00C949801811180E4860F11
:1004800080680C949801009711F00C94F201089583
:100490000F931F93CF938C01C0E00115110599F0C4
:1004A000F80181918F01882371F0C03121F4CF913F
:1004B0001F910F9108950E94A501CF5FEECF80E2BA
:1004C0000E94A501CF5FC031D0F3F1CF0C94480258
:1004D000CF93DF9364E670E00E94A607EC01CB01A6
:1004E0000E94B2018EE20E94A501CE016AE070E096
:1004F0000E94A607C82F80E3860F0E94A50180E313
:100500008C0F0E94A50185E6DF91CF910C94A50187
:100510000E94FE0180E80E94980180E191E00E9423
:10052000480280EC0E9498018FE191E00C9448020F
:100530000C948802EF92FF920F931F93CF937C014C
:100540008B01C42F0E94FE0180E80E949801C70120
:100550000E94480280EC0E949801C8010E94680233
:1005600080E20E94A50188E70E94A501CA30C0F080
:100570008C2F90E00E94B20180E20E94A50183E2EC
:100580000E94A5018DE30E94A5018FE40E94A501B0
:100590008BE4CF911F910F91FF90EF900C94A501E8
:1005A00080E38C0F0E94A501E7CF0F931F93CF9399
:1005B0008C01C62F0E94FE0180E80E949801C801AC
:1005C0000E94480280EC0E9498018EE291E00E9415
:1005D000F201CA3058F08C2F90E00E94B20183E300
:1005E00091E0CF911F910F910C94F20180E38C0F59
:1005F0000E94A501F4CF1F93CF93DF93182FEB0137
:100600000E94FE0180E80E94980181E491E00E942E
:10061000F201812F90E00E94B20180EC0E949801CB
:100620008DE491E00E94F201CE01DF91CF911F9104
:100630000C946802CF93DF93EC010E94FE0180E8E6
:100640000E94980184E591E00E94F20180EC0E94F2
:100650009801CE010E94680283E691E0DF91CF917C
:100660000C94F2010E94FE0180E80E9498018BE642
:1006700091E00E94480280EC0E94980186E791E098
:100680000C944802CF93DF93EC010E94FE0180E8B6
:100690000E9498018BE691E00E94480280EC0E9443
:1006A000980186E891E00E94F201CE01DF91CF919E
:1006B0000C94B201CF93DF93EC010E94FE0180E81D
:1006C0000E9498018EE891E00E94480280EC0E940E
:1006D000980186E891E00E94F201CE01DF91CF916E
:1006E0000C94B201CF93DF93EC010E94FE0180E8ED
:1006F0000E9498018DE991E00E94480280EC0E94DE
:10070000980186E891E00E94F201CE01DF91CF913D
:100710000C94B2010E94FE0180E80E9498018AEACE
:1007200091E00E94480280EC0E9498018AE391E0E7
:100730000C944802CF93DF93EC010E94FE0180E805
:100740000E94980189EB91E00E94480280EC0E948F
:100750009801CE01DF91CF910C9448020E94FE01D6
:1007600080E80E94980180E191E00E94480280ECBC
:100770000E9498018FEB91E00C9448020E94FE01C8
:1007800080E80E9498018FEC91E00E94480280EC82
:100790000E9498018DED91E00C9448020F931F93F5
:1007A000CF938C01C62F0E94FE0180E80E94980121
:1007B00084EE91E00E94480280EC0E94980188E754
:1007C0000E94A501CA3051F482EF91E00E94F2012B
:1007D000C801CF911F910F910C94480280E38C0FB8
:1007E0000E94A50180E20E94A501F2CFDF92EF9264
:1007F000FF920F931F93CF93DF93C82FD62E7A01CA
:10080000D22F0E94FE0180E80E9498018C2F90E078
:1008100001960E94B2018FE20E94A5018D2D90E009
:100820000E94B20180E20E94A501C7010E94480215
:1008300080EC0E94980188E70E94A5018D2F90E02E
:100840000E94B20180E20E94A501C8010E946802D4
:1008500086EF91E0DF91CF911F910F91FF90EF9084
:10086000DF900C94F2010F931F9360915A0761116E
:1008700004C01F910F910C94BE036817C8F0681351
:1008800018C0EBE5F7E090E080E020E03381A48140
:10089000B5813A9FA0013B9F500D1124840F951FF5
:1008A0002F5F36966213F2CF1F910F910C941A03AB
:1008B00080E096E0899FF0011124E55AF84F2381EA
:1008C00044815581249F8001259F100D1124418171
:1008D00052810E94F6031F910F910895EDEAF2E014
:1008E00090E080E05AE0419120ED240F2A3008F09A
:1008F0000895589F9001599F300D1124C901C09748
:10090000840F911D47FD9A95EECF1F93CF93DF93F0
:10091000DC01EA01188210910D03EEE0F3E030E013
:1009200080E090E020E0311305C02883DF91CF9173
:100930001F9108957E2F4F2F5589552399F051818E
:10094000A130B10551F4533069F4261711F0782F16
:10095000492F2F5F872F942F05C0A230B10529F4AE
:10096000523099F33F5F7696DECFA330B105D1F7D1
:100970005130C1F7EACF1F93CF93DF931F92CDB7CA
:10098000DEB7142F1982AE014F5F5F4F0E948504BE
:10099000009719F02981211109C08EEF91E00E9482
:1009A0009A030F90DF91CF911F910895FC01638905
:1009B0007489412F02960E949A02F3CF1092B900D7
:1009C00088E48093B80084E08093BC00089594EAA2
:1009D0009093BC009091BC0097FFFCCF8093BB002C
:1009E00084E88093BC008091BC0087FFFCCF81E04D
:1009F000089584E98093BC0008958093BB0084E847
:100A00008093BC008091BC0087FFFCCF81E00895FB
:100A1000CF93DF93CDB7DEB7C156D1090FB6F894A7
:100A2000DEBF0FBECDBF0E9453000E9408020E948D
:100A300014010E94C9000E94AE038CE092E00E9463
:100A400068008FE192E00E94680033243394712C97
:100A500010E0F12CE12CCE0101966C0166E1662ECE
:100A600076E9472E72E0572EA2961FAEA297CE01CE
:100A70008F599F4F0E947C00A82E81110EC00E94AA
:100A80002701082F882309F448C18A3209F034C1AC
:100A90000E94AE03F12CE12CE7CFA2968FADA29776
:100AA0008D3029F3E0910C038A3009F019C1AE2F83
:100AB000B0E0A455BD4F1C92EE2341F08091AC02F2
:100AC000863539F40E946E040E94420310920C0392
:100AD000CECF813429F40E946E040E945A03F6CFCF
:100AE000823549F40E946E040E9472030E94D20073
:100AF00010925A07EBCF67E272E08CEA92E00E9414
:100B00000E08892B29F410925A070E948A03DECF1F
:100B100069E272E08CEA92E00E940E08892B19F4D7
:100B200010920D03D3CF4AE050E064E372E08CEA08
:100B300092E00E941708892B09F09EC080910D0356
:100B4000823320F64FE550E06CEA72E0C6010E9465
:100B50002508A1961FAEA19764E972E0C6010E9424
:100B6000090864E972E090E080E00E9409080097BB
:100B700009F4ACCF0E94EB07E0910D036E9EF001EB
:100B80001124E25FFC4F808364E972E090E080E032
:100B90000E9409085C01009709F498CF80900D032A
:100BA000912C6FE372E00E940E08892B09F45EC05D
:100BB00069E171E0C5010E940E08892B09F458C053
:100BC00066E472E0C5010E940E08892B09F052C04C
:100BD00083E0689CF001699CF00D1124E25FFC4FFA
:100BE000818364E972E090E080E00E940908009748
:100BF00009F46CCFA0900D03A69C5001112440E194
:100C000050E0BC01C501805F9C4F0E942508F501A2
:100C1000E25FFC4F128A64E972E090E080E00E949B
:100C20000908009709F452CF0E94EB07E0910D03E9
:100C30006E9EF0011124E25FFC4F948B838B64E97C
:100C400072E090E080E00E940908009709F43ECF2E
:100C50000E94EB0790910D03699EF0011124E25F61
:100C6000FC4F858B9F5F90930D0330CF81E0B1CF18
:100C700082E0AFCF80E0ADCF6BE472E08CEA92E02F
:100C80000E940E08892B09F421CF64E572E08CEAFA
:100C900092E00E940E08892B99F40E94FE0160E008
:100CA00080E00E943D0281E692E00E94480260E0FE
:100CB00081E00E943D028DED91E00E94480206CF46
:100CC0004CE050E06EE672E08CEA92E00E94170879
:100CD000892B09F0FBCE8BE792E00E949A03F6CEB7
:100CE000EF3508F0F3CE91E09E0F90930C03F0E007
:100CF000E455FD4F8083BBCEE114F104E9F5813466
:100D000099F441E060E081E090E00E94BB0410E0D3
:100D100033243394EE24E394F12C8FE99FE0019780
:100D2000F1F700C00000A0CE823469F441E060E039
:100D300082E090E00E94BB0410E03324339442E050
:100D4000E42EF12CEACF833469F441E060E083E0E3
:100D500090E00E94BB0410E03324339433E0E32E90
:100D6000F12CDBCF8434C9F680E00E943304712C6F
:100D700024E0E22EF12CD1CF94E0E916F10409F041
:100D80005BC0813481F4B0905A07BB2051F07720CA
:100D900019F0BB24BA94B70C8B2D0E9433047B2C22
:100DA000BCCFB72CF9CF823469F480915A078823DD
:100DB00019F07394871508F0A72C8A2D0E9433042C
:100DC0007A2CABCF833209F0A8CF80915A078111DA
:100DD00003C00E94BE03A1CF88E892E00E94680091
:100DE00006E080915A07A81638F08CE992E00E943C
:100DF00068000E94320391CFAA2019F08CE20E9471
:100E000061000A9DF0011124E55AF84F83811F9279
:100E10008F9380811F928F935F924F92DF92CF9238
:100E20000E946308C6010E946800A3940FB6F8945C
:100E3000DEBF0FBECDBFD5CF1982A601612FC7017E
:100E40000E948504FC018981811105C08EEF91E02B
:100E50000E949A0309CE013471F411110AC01FEFE8
:100E6000180F41E0612FC7010E94BB043324339463
:100E700054CF1150F6CF023459F41F5F181708F4FD
:100E8000A12E41E06A2DC7010E94BB041A2DEECFAE
:100E90008FEC800F893048F490ED392E300E432DC1
:100EA000612FC7010E94BB0438CF003341F44AE0F0
:100EB000612FC7010E94BB048AE0382E2ECF033277
:100EC00009F02BCF3097B1F1CF010296708160917C
:100ED0005A07ABE5B7E030E020E02617A0F06A3013
:100EE00031F12389348946E0649FF0011124E55AE9
:100EF000F84F7083928381833583248333826F5FBD
:100F000060935A0714C0A901BC902F5F3F4F1696FB
:100F10007B11E3CF26E0249FF001259FF00D1124E3
:100F2000E55AF84F2381230D243670F42383632D73
:100F30000E94CE038FEF91EF2BE281509040204032
:100F4000E1F700C00000ABCF23E6F0CFAA1BBB1B2C
:100F500051E107C0AA1FBB1FA617B70710F0A61BB9
:100F6000B70B881F991F5A95A9F780959095BC01DA
:100F7000CD010895A1E21A2EAA1BBB1BFD010DC0D5
:100F8000AA1FBB1FEE1FFF1FA217B307E407F50739
:100F900020F0A21BB30BE40BF50B661F771F881F15
:100FA000991F1A9469F760957095809590959B01AB
:100FB000AC01BD01CF010895A29FB001B39FC00154
:100FC000A39F700D811D1124911DB29F700D811D75
:100FD0001124911D0895FC0188279927E8942191F7
:100FE0002032E9F3293010F02E30C8F32B3241F0D3
:100FF0002D3239F4689404C00E945B08820F911D61
:10100000219120532A30C0F31EF4909581959F4F73
:10101000089547E957E00E9434080895FB01DC0178
:101020008D91019080190110D9F3990B0895FB015E
:10103000DC014150504030F08D910190801919F43D
:101040000020B9F7881B990B0895FB01DC01415082
:10105000504048F001900D920020C9F701C01D9248
:1010600041505040E0F70895FA01A191B0810097F6
:1010700019F41097E1F0CD01DC01CD010D900020B5
:1010800011F4C00113C0FB012191222319F0201596
:10109000D9F7F3CFFB012191201519F41E92119677
:1010A00006C02223C1F70D900020A1F7D001FA015C
:1010B000A193B08308957AE0979F902D879F802D0C
:1010C000910D11240895AEE0B0E0E9E6F8E00C944B
:1010D000120B0D891E8986E08C831A8309838FEF9A
:1010E0009FE79E838D83AE01475E5F4F6F89788D4A
:1010F000CE0101960E9486082F813885020F131FAA
:10110000F80110822E96E4E00C942E0BABE0B0E0D8
:10111000ECE8F8E00C94040B7C013B018A01FC0133
:1011200017821682838181FFC8C1CE0101965C01BE
:10113000F7019381F30193FD859193FF81913F0125
:10114000882309F453C1853239F493FD859193FFC7
:1011500081913F01853229F4B70190E00E94760A1F
:10116000E7CF912C212C312CFFE1F31538F08B3295
:1011700011F190F4803209F1833229F137FC3CC03F
:1011800020ED280F2A3050F536FE20C08AE0989EC8
:10119000200D1124922E06C08D3291F0803371F70C
:1011A000689430F8F30193FD859193FF81913F019D
:1011B0008111DACF21C0689431F8689432F8F2CF07
:1011C000689433F8EFCF689434F8ECCFEAE02E9EC1
:1011D000200D1124222E689435F8E4CF8E3229F4A4
:1011E00036FC04C1689436F8DDCF8C3619F4689467
:1011F00037F8D8CF8836B1F2982F9F7D9554933029
:10120000E0F08336A1F18337C1F1833509F063C083
:101210002801F2E04F0E511CF801C080D180692DE9
:1012200070E036FC02C06FEF7FEFC6010E94600ADB
:101230004C01689437F882010AC00C5F1F4FFFE32E
:10124000F98388248394912C6501E89437F833FE60
:101250002DC0522C8114910471F5552009F468CFEA
:10126000B70180E290E00E94760A5A94F6CFF80126
:10127000808189830E5F1F4FE4CF2801F2E04F0E7B
:10128000511CF801C080D180692D70E036FC02C08D
:101290006FEF7FEFC6010E946B0A4C018201D5CF30
:1012A000B70180E290E00E94760A2A94281419047B
:1012B00009F0B0F7CECFF60137FC859137FE81916A
:1012C0006F01B70190E00E94760A51105A94F1E044
:1012D0008F1A9108BFCF843619F0893609F077C08C
:1012E000F80137FE6BC060817181828193810C5F50
:1012F0001F4FF32DFF763F2E97FF09C090958095E5
:10130000709561957F4F8F4F9F4F689437F82AE013
:1013100030E0A5010E94A60AC82ECA188C2C432CC6
:1013200036FE0CC0E89440F8C91440F434FE05C001
:1013300032FC03C0F32DFE7E4F2E892C44FE95C057
:10134000FE01EC0DF11D8081803309F087C0242D52
:10135000297E422E842D8870582E43FC95C040FE75
:101360008FC09C2C821418F42C0C922C981844FEDC
:1013700091C0B70180E390E00E94760A42FE09C066
:1013800088E790E041FE02C088E590E0B7010E9446
:10139000760AC91408F48AC0CA94D12C9FEFC91ADE
:1013A000D90ACA0CDB1CF60182916F01B70190E0EB
:1013B0000E94760AAC14BD04B1F74FCF60817181F1
:1013C000072E000C880B990B0E5F1F4F92CFD32C6A
:1013D000E894D4F82AE030E0853739F1232D297FCD
:1013E000D22E8F3601F148F48835A9F0F7018681B5
:1013F00097812B96E2E10C94200B803749F08837D7
:10140000A9F7D4FE02C06894D2F820E130E00DC004
:101410006894D4F8F6CF34FE03C0822F8660D82EAD
:1014200020E132E002C028E030E0F801D7FE0FC032
:1014300060817181828193810C5F1F4FA5010E94A1
:10144000A60AC82ECA183D2CE89437F867CF6081E9
:10145000718190E080E00E5F1F4FF0CF42FC02C030
:10146000839478CF8394839475CF842D867809F400
:1014700071CFF6CFB70180E290E00E94760A8394A4
:101480008214C0F3512C73CF522C5818821408F4D4
:101490006ECFF8CF842D867809F47BCF8BE241FEA6
:1014A00080E247FC8DE2B70190E071CFB70180E3A5
:1014B00090E00E94760A9A946CCF8FEF9FEF99CFBD
:1014C000FC010590615070400110D8F7809590950F
:1014D0008E0F9F1F0895FC01615070400190011014
:1014E000D8F7809590958E0F9F1F08950F931F93A7
:1014F000CF93DF93182F092FEB018B8181FD09C05A
:101500001FEF0FEF812F902FDF91CF911F910F9140
:10151000089582FF14C02E813F818C819D81281700
:1015200039073CF4E881F981CF01019699838883DA
:1015300010838E819F8101969F838E83E3CFE88500
:10154000F985812F0995892BA1F3DACFFA01AA2712
:10155000283051F1203181F1E8946F936E7F6E5FF6
:101560007F4F8F4F9F4FAF4FB1E03ED0B4E03CD0A4
:10157000670F781F891F9A1FA11D680F791F8A1F87
:10158000911DA11D6A0F711D811D911DA11D20D0EE
:1015900009F468943F912AE0269F11243019305DA8
:1015A0003193DEF6CF010895462F4770405D419399
:1015B000B3E00FD0C9F7F6CF462F4F70405D4A33E6
:1015C00018F0495D31FD4052419302D0A9F7EACFAE
:1015D000B4E0A6959795879577956795BA95C9F7DD
:1015E00000976105710508959B01AC010A2E0694D0
:1015F0005795479537952795BA95C9F7620F731F89
:10160000841F951FA01D08952F923F924F925F92C5
:101610006F927F928F929F92AF92BF92CF92DF9202
:10162000EF92FF920F931F93CF93DF93CDB7DEB767
:10163000CA1BDB0B0FB6F894DEBF0FBECDBF0994FB
:101640002A88398848885F846E847D848C849B8452
:10165000AA84B984C884DF80EE80FD800C811B8160
:10166000AA81B981CE0FD11D0FB6F894DEBF0FBE8F
:0A167000CDBFED010895F894FFCFFF
:10167A003132334134353642373839432A302344FC
:10168A00413D4D65616C20423D4C756E6368004377
:10169A003D4472696E6B20443D4465737300517416
:1016AA00793A0020233D616464202A3D6261636BBC
:1016BA000043617274206974656D733A00546F74E3
:1016CA00616C2000436865636B6F757420746F7476
:1016DA00616C0020233D73656E64004F726465720D
:1016EA002073656E74005761697420636F6E666952
:1016FA00726D2E2E2E004F726465722023004F7277
:10170A00646572206163636570746564004F726416
:10171A00657220726561647921004F726465727323
:10172A0020636C6561726564004572726F72004372
:10173A003D4472696E6B20443D4F7264657200438A
:10174A0061727420697320656D707479002A3D4254
:10175A0061636B00416464656420746F2063617225
:10176A0074003130200020233D53656E64004E6FB3
:10177A00206D656E75206974656D73004D454E5513
:10178A005F4445564943455F424F4F540D0A00484E
:10179A00454C4C4F0D0A0043004D454E555F42459E
:1017AA0047494E004D454E555F4954454D7C0044CE
:1017BA0072696E6B73004D65616C004D454E555FE5
:1017CA00454E44004D454E555F4348414E474544BA
:1017DA00004D656E752075706461746564004F52C2
:1017EA004445525F4552524F527C004F72646572B3
:1017FA00206661696C6564004F524445527C5441CD
:10180A00424C45317C0025753A2575007C4D454E84
:0C181A00555F4445564943450D0A000047
:00000001FF
